{"contracts/Example.sol":{"ExampleContract":{"abi":[{"anonymous":false,"inputs":[{"indexed":true,"internalType":"address","name":"param1","type":"address"},{"indexed":true,"internalType":"int32","name":"param2","type":"int32"},{"indexed":true,"internalType":"int256","name":"param3","type":"int256"},{"indexed":false,"internalType":"address","name":"param4","type":"address"},{"indexed":false,"internalType":"uint256","name":"param5","type":"uint256"}],"name":"ExampleEvent","type":"event"},{"inputs":[{"internalType":"address","name":"_param1","type":"address"},{"internalType":"int32","name":"_param2","type":"int32"},{"internalType":"int256","name":"_param3","type":"int256"},{"internalType":"address","name":"_param4","type":"address"},{"internalType":"uint256","name":"_param5","type":"uint256"}],"name":"triggerEvent","outputs":[],"stateMutability":"nonpayable","type":"function"}],"evm":{"bytecode":{"linkReferences":{},"object":"608060405234801561001057600080fd5b506102a8806100206000396000f3fe608060405234801561001057600080fd5b506004361061002b5760003560e01c806319c94dd014610030575b600080fd5b61004a600480360381019061004591906101b0565b61004c565b005b828460030b8673ffffffffffffffffffffffffffffffffffffffff167f43c5dd2ecf8a04a86d029ffc3601ce4078b42b82e56127fcb95985943b05308f8585604051610099929190610249565b60405180910390a45050505050565b600080fd5b600073ffffffffffffffffffffffffffffffffffffffff82169050919050565b60006100d8826100ad565b9050919050565b6100e8816100cd565b81146100f357600080fd5b50565b600081359050610105816100df565b92915050565b60008160030b9050919050565b6101218161010b565b811461012c57600080fd5b50565b60008135905061013e81610118565b92915050565b6000819050919050565b61015781610144565b811461016257600080fd5b50565b6000813590506101748161014e565b92915050565b6000819050919050565b61018d8161017a565b811461019857600080fd5b50565b6000813590506101aa81610184565b92915050565b600080600080600060a086880312156101cc576101cb6100a8565b5b60006101da888289016100f6565b95505060206101eb8882890161012f565b94505060406101fc88828901610165565b935050606061020d888289016100f6565b925050608061021e8882890161019b565b9150509295509295909350565b610234816100cd565b82525050565b6102438161017a565b82525050565b600060408201905061025e600083018561022b565b61026b602083018461023a565b939250505056fea2646970667358221220d7920a352f7cd6b5f245923f8a63370f77f1cc8b5d711f4e40be4ef354d3a4d664736f6c63430008180033","opcodes":"PUSH1 0x80 PUSH1 0x40 MSTORE CALLVALUE DUP1 ISZERO PUSH2 0x10 JUMPI PUSH1 0x0 DUP1 REVERT JUMPDEST POP PUSH2 0x2A8 DUP1 PUSH2 0x20 PUSH1 0x0 CODECOPY PUSH1 0x0 RETURN INVALID PUSH1 0x80 PUSH1 0x40 MSTORE CALLVALUE DUP1 ISZERO PUSH2 0x10 JUMPI PUSH1 0x0 DUP1 REVERT JUMPDEST POP PUSH1 0x4 CALLDATASIZE LT PUSH2 0x2B JUMPI PUSH1 0x0 CALLDATALOAD PUSH1 0xE0 SHR DUP1 PUSH4 0x19C94DD0 EQ PUSH2 0x30 JUMPI JUMPDEST PUSH1 0x0 DUP1 REVERT JUMPDEST PUSH2 0x4A PUSH1 0x4 DUP1 CALLDATASIZE SUB DUP2 ADD SWAP1 PUSH2 0x45 SWAP2 SWAP1 PUSH2 0x1B0 JUMP JUMPDEST PUSH2 0x4C JUMP JUMPDEST STOP JUMPDEST DUP3 DUP5 PUSH1 0x3 SIGNEXTEND DUP7 PUSH20 0xFFFFFFFFFFFFFFFFFFFFFFFFFFFFFFFFFFFFFFFF AND PUSH32 0x43C5DD2ECF8A04A86D029FFC3601CE4078B42B82E56127FCB95985943B05308F DUP6 DUP6 PUSH1 0x40 MLOAD PUSH2 0x99 SWAP3 SWAP2 SWAP1 PUSH2 0x249 JUMP JUMPDEST PUSH1 0x40 MLOAD DUP1 SWAP2 SUB SWAP1 LOG4 POP POP POP POP POP JUMP JUMPDEST PUSH1 0x0 DUP1 REVERT JUMPDEST PUSH1 0x0 PUSH20 0xFFFFFFFFFFFFFFFFFFFFFFFFFFFFFFFFFFFFFFFF DUP3 AND SWAP1 POP SWAP2 SWAP1 POP JUMP JUMPDEST PUSH1 0x0 PUSH2 0xD8 DUP3 PUSH2 0xAD JUMP JUMPDEST SWAP1 POP SWAP2 SWAP1 POP JUMP JUMPDEST PUSH2 0xE8 DUP2 PUSH2 0xCD JUMP JUMPDEST DUP2 EQ PUSH2 0xF3 JUMPI PUSH1 0x0 DUP1 REVERT JUMPDEST POP JUMP JUMPDEST PUSH1 0x0 DUP2 CALLDATALOAD SWAP1 POP PUSH2 0x105 DUP2 PUSH2 0xDF JUMP JUMPDEST SWAP3 SWAP2 POP POP JUMP JUMPDEST PUSH1 0x0 DUP2 PUSH1 0x3 SIGNEXTEND SWAP1 POP SWAP2 SWAP1 POP JUMP JUMPDEST PUSH2 0x121 DUP2 PUSH2 0x10B JUMP JUMPDEST DUP2 EQ PUSH2 0x12C JUMPI PUSH1 0x0 DUP1 REVERT JUMPDEST POP JUMP JUMPDEST PUSH1 0x0 DUP2 CALLDATALOAD SWAP1 POP PUSH2 0x13E DUP2 PUSH2 0x118 JUMP JUMPDEST SWAP3 SWAP2 POP POP JUMP JUMPDEST PUSH1 0x0 DUP2 SWAP1 POP SWAP2 SWAP1 POP JUMP JUMPDEST PUSH2 0x157 DUP2 PUSH2 0x144 JUMP JUMPDEST DUP2 EQ PUSH2 0x162 JUMPI PUSH1 0x0 DUP1 REVERT JUMPDEST POP JUMP JUMPDEST PUSH1 0x0 DUP2 CALLDATALOAD SWAP1 POP PUSH2 0x174 DUP2 PUSH2 0x14E JUMP JUMPDEST SWAP3 SWAP2 POP POP JUMP JUMPDEST PUSH1 0x0 DUP2 SWAP1 POP SWAP2 SWAP1 POP JUMP JUMPDEST PUSH2 0x18D DUP2 PUSH2 0x17A JUMP JUMPDEST DUP2 EQ PUSH2 0x198 JUMPI PUSH1 0x0 DUP1 REVERT JUMPDEST POP JUMP JUMPDEST PUSH1 0x0 DUP2 CALLDATALOAD SWAP1 POP PUSH2 0x1AA DUP2 PUSH2 0x184 JUMP JUMPDEST SWAP3 SWAP2 POP POP JUMP JUMPDEST PUSH1 0x0 DUP1 PUSH1 0x0 DUP1 PUSH1 0x0 PUSH1 0xA0 DUP7 DUP9 SUB SLT ISZERO PUSH2 0x1CC JUMPI PUSH2 0x1CB PUSH2 0xA8 JUMP JUMPDEST JUMPDEST PUSH1 0x0 PUSH2 0x1DA DUP9 DUP3 DUP10 ADD PUSH2 0xF6 JUMP JUMPDEST SWAP6 POP POP PUSH1 0x20 PUSH2 0x1EB DUP9 DUP3 DUP10 ADD PUSH2 0x12F JUMP JUMPDEST SWAP5 POP POP PUSH1 0x40 PUSH2 0x1FC DUP9 DUP3 DUP10 ADD PUSH2 0x165 JUMP JUMPDEST SWAP4 POP POP PUSH1 0x60 PUSH2 0x20D DUP9 DUP3 DUP10 ADD PUSH2 0xF6 JUMP JUMPDEST SWAP3 POP POP PUSH1 0x80 PUSH2 0x21E DUP9 DUP3 DUP10 ADD PUSH2 0x19B JUMP JUMPDEST SWAP2 POP POP SWAP3 SWAP6 POP SWAP3 SWAP6 SWAP1 SWAP4 POP JUMP JUMPDEST PUSH2 0x234 DUP2 PUSH2 0xCD JUMP JUMPDEST DUP3 MSTORE POP POP JUMP JUMPDEST PUSH2 0x243 DUP2 PUSH2 0x17A JUMP JUMPDEST DUP3 MSTORE POP POP JUMP JUMPDEST PUSH1 0x0 PUSH1 0x40 DUP3 ADD SWAP1 POP PUSH2 0x25E PUSH1 0x0 DUP4 ADD DUP6 PUSH2 0x22B JUMP JUMPDEST PUSH2 0x26B PUSH1 0x20 DUP4 ADD DUP5 PUSH2 0x23A JUMP JUMPDEST SWAP4 SWAP3 POP POP POP JUMP INVALID LOG2 PUSH5 0x6970667358 0x22 SLT KECCAK256 0xD7 SWAP3 EXP CALLDATALOAD 0x2F PUSH29 0xD6B5F245923F8A63370F77F1CC8B5D711F4E40BE4EF354D3A4D664736F PUSH13 0x63430008180033000000000000 "},"methodIdentifiers":{"triggerEvent(address,int32,int256,address,uint256)":"19c94dd0"}}}}}