{
  "_format": "hh-sol-artifact-1",
  "contractName": "ExampleContract",
  "sourceName": "contracts/Example.sol",
  "abi": [
    {
      "anonymous": false,
      "inputs": [
        {
          "indexed": true,
          "internalType": "address",
          "name": "param1",
          "type": "address"
        },
        {
          "indexed": true,
          "internalType": "int32",
          "name": "param2",
          "type": "int32"
        },
        {
          "indexed": true,
          "internalType": "int256",
          "name": "param3",
          "type": "int256"
        },
        {
          "indexed": false,
          "internalType": "address",
          "name": "param4",
          "type": "address"
        },
        {
          "indexed": false,
          "internalType": "uint256",
          "name": "param5",
          "type": "uint256"
        }
      ],
      "name": "ExampleEvent",
      "type": "event"
    },
    {
      "inputs": [
        {
          "internalType": "address",
          "name": "_param1",
          "type": "address"
        },
        {
          "internalType": "int32",
          "name": "_param2",
          "type": "int32"
        },
        {
          "internalType": "int256",
          "name": "_param3",
          "type": "int256"
        },
        {
          "internalType": "address",
          "name": "_param4",
          "type": "address"
        },
        {
          "internalType": "uint256",
          "name": "_param5",
          "type": "uint256"
        }
      ],
      "name": "triggerEvent",
      "outputs": [],
      "stateMutability": "nonpayable",
      "type": "function"
    }
  ],
  "bytecode": "0x608060405234801561001057600080fd5b506102a8806100206000396000f3fe608060405234801561001057600080fd5b506004361061002b5760003560e01c806319c94dd014610030575b600080fd5b61004a600480360381019061004591906101b0565b61004c565b005b828460030b8673ffffffffffffffffffffffffffffffffffffffff167f43c5dd2ecf8a04a86d029ffc3601ce4078b42b82e56127fcb95985943b05308f8585604051610099929190610249565b60405180910390a45050505050565b600080fd5b600073ffffffffffffffffffffffffffffffffffffffff82169050919050565b60006100d8826100ad565b9050919050565b6100e8816100cd565b81146100f357600080fd5b50565b600081359050610105816100df565b92915050565b60008160030b9050919050565b6101218161010b565b811461012c57600080fd5b50565b60008135905061013e81610118565b92915050565b6000819050919050565b61015781610144565b811461016257600080fd5b50565b6000813590506101748161014e565b92915050565b6000819050919050565b61018d8161017a565b811461019857600080fd5b50565b6000813590506101aa81610184565b92915050565b600080600080600060a086880312156101cc576101cb6100a8565b5b60006101da888289016100f6565b95505060206101eb8882890161012f565b94505060406101fc88828901610165565b935050606061020d888289016100f6565b925050608061021e8882890161019b565b9150509295509295909350565b610234816100cd565b82525050565b6102438161017a565b82525050565b600060408201905061025e600083018561022b565b61026b602083018461023a565b939250505056fea2646970667358221220d7920a352f7cd6b5f245923f8a63370f77f1cc8b5d711f4e40be4ef354d3a4d664736f6c63430008180033",
  "linkReferences": {},
  "deployedLinkReferences": {}
}